:060000000A128A11122809
:10000800FE00030EF6000408F7000A08F800831241
:1000180003137F08F9000A128A1115280A128A1197
:10002800FC2A0C1C18281928CC280C100130F000C8
:100038007008BD0702303D02031C23282428252808
:10004800BD01BD08031929282B28FA152C28FA11F7
:1000580083120313C801FA1D322833283B287A1D5E
:10006800362837283B28C8010314C80D3B28480800
:10007800031D85160319851207102830F000700833
:10008800C900C908031D49284A284C28C128C12885
:100098005008F000F1010130FF000310F00DF10DE0
:1000A800FF0B51287008023EF20071080318013E48
:1000B800003EF300490872067304031D642865288E
:1000C8006F287B18682869286D28FA1D6C286D2808
:1000D8006F280617B8287B187228742801307528ED
:1000E8000030F000FA1879287B2801307C2800308D
:1000F8007006031D802881288628FF30BE00FF3047
:10010800BF008B280130BE000030BF008B2850088C
:10011800F000F1010130FF000310F00DF10DFF0BAD
:1001280090283E087007F2003F0803183F0A71073D
:10013800F3007208023EF40073080318013E003E03
:10014800F500490874067504031DAB28AC28B628C9
:100158007B1CAF28B028B428FA1DB328B428B628C9
:100168000617B8280613B828861786130130C9025F
:10017800C908031DC028C1284C280613FA1CC52825
:10018800C628C92887120716CB288716071207140E
:100198000B1DCF28D0289E290B11D328D328013036
:1001A800D1025108FF3A031DDA28DB28D3280000C2
:1001B8000000000000000230F000700883120313F2
:1001C800D100843081000130350215300319340222
:1001D8000318EF28F0286F2900303502283003195A
:1001E8003402031CF828F9280B2900303502B830EE
:1001F80003193402031C012902292F290030350272
:10020800E0300319340203180A290B292F297A1818
:100218000E290F2914297030C0000030C100182998
:100228006930C0000030C1004008831603139200F3
:100238007A181F2920292729383083120313C2006E
:100248000030C3002C2935308312C2000030C300AF
:10025800420895006829003035025D3003193402E0
:10026800031C37293829412900303502E0300319A9
:100278003402031C4029412965297A184429452953
:100288004A299530C4000030C5004E298D30C4007D
:100298000030C50044088316031392007A185529C4
:1002A80056295D294B3083120313C6000030C7005E
:1002B800622947308312C6000030C70046089500FF
:1002C80068299501682968290130B4070318B50A17
:1002D8000030B5077129950171290130F0007008C7
:1002E800BC0702303C02031C7A297B299E29BC01E9
:1002F8000609F0007008B80038083906031D85297A
:100308008629972939083A06031D8B298C299129B2
:100318003808F0007008BB009E293908F000700802
:10032800BA009E299E293808F0007008B9009E2955
:100338009E299E297908FF0078088A00770884009A
:10034800760E8300FE0E7E0E0900613083160313BD
:100358008F00053081003F30950085013F308600D1
:10036800870183120313850186018701831603130E
:100378009F018316031789018801831203138716C7
:100388000716071487117A11B801B901BA01BB0120
:10039800FF30CA004A08CE000C309700633083163D
:1003A80003139200063083120313CA004A0892040A
:1003B80095016330CA004A08CF00BD010530831695
:1003C8000313810083308312031381008B16901668
:1003D80010161014831603130C140B178B17FB1429
:1003E800023083120313CA004A08D100FA10D00160
:1003F8000314D00D7B140613CC0129304C02031CC6
:10040800062A072A092A152A152A8617861301306B
:10041800CA004A08CC0729304C02031C142A152AA2
:10042800092A871207127A101530B4000130B50076
:100438001D2A83120313CD0106304D02031C252A01
:10044800262A282AEE2AEE2A0130CA004D0A2E2A28
:100458000310CA0DFF3E031D2C2A4A083B054E0512
:100468000319372A382AC42A0130CA004D0A3E2AFD
:100478000310CA0DFF3E031D3C2A4A08FF3A4E05E9
:10048800CB004B08CE00AF2A0430FA06E32A7A10D4
:10049800B401B501E32A7A14B401B501E32A50087E
:1004A800013A0319582A592A5F2A5008133A031D9A
:1004B8005E2A5F2A612A7B14612A0230FA06E32A3F
:1004C8005008133A031D692A6A2A6F2A7B186D2A75
:1004D8006E2AE32A6F2AFA18722A742A0130752ABA
:1004E8000030CA007B18792A7B2A01307C2A003028
:1004F8004A060319802A812A862A0130CA004A0836
:10050800D007862A0130FB06E32AE32A5008013A7D
:10051800031D8F2A902A952A7B18932A942AE32A66
:10052800952AFA18982A9A2A01309B2A0030CA007C
:100538007B189F2AA12A0130A22A00304A06031DEF
:10054800A62AA72AAA2A0130D002AA2A0130FB0625
:10055800E32AE32AE32A4D08003A0319482A013A14
:1005680003194B2A033A03194F2A013A0319642A3B
:10057800073A0319532A013A03198A2AE32AE32A74
:100588000130CA004D0ACA2A0310CA0DFF3E031DD6
:10059800C82A3B084E044A05031DD32AD42AE32A55
:1005A8000130CA004D0ADA2A0310CA0DFF3E031DA6
:1005B800D82A4A084E04CB004B08CE00E32A013063
:1005C800CA004A08CD0706304D02031CEC2AED2A62
:1005D800282AEE2A0D30CB00FB30CA00CA0BF22ABB
:1005E800CB0BF22AF72A1D2A1D2A0A128A11122871
:1005F800FA01FC01FD018313203084003E300A1209
:100608008A110C230A128A1183010A128A11A92954
:1006180064008001840A04060319003404060D2BC3
:04400E00C42BFF3F81
:00000001FF
